:020000040000FA
:040000004CEF38F099
:106F6000266E26C083FF1200020E816E000E826E16
:106F7000020E276E580E266E3AEC39F0020E826E23
:106F80001200040E816E000E826E020E276E580EE5
:106F9000266E3AEC39F0020E826E1200080E816EF7
:106FA000000E826E020E276E580E266E3AEC39F0F5
:106FB000020E826E1200100E816E000E826E020EA4
:106FC000276E580E266E3AEC39F0020E826E1200D1
:106FD0003F0006005B004F0066006D007D0007006B
:106FE0007F00670009004000000000000F0005005E
:106FF00026502802F3CF2AF0F4CF2BF02650290296
:10700000F3502B2627502802F3502B262AC026F0B7
:107010002BC027F012002C6E84822C50B0EC37F07D
:107020008494000E276E030E266E3AEC39F084929B
:10703000000E276E030E266E3AEC39F084821200A1
:107040002C6E84822C50B0EC37F08484000E276EB6
:10705000030E266E3AEC39F08492000E276E030E72
:10706000266E3AEC39F084821200FF0E2E6EFF0E6F
:107070002F6E2CC030F02DC031F02E5030262F5006
:10708000312230C01CF031C01DF01E6A1F6A206A18
:10709000216A226A236A1200D00EF66E6F0EF76E16
:1070A000000EF86E00EE49F010EE20F00900F5CF6A
:1070B000EEFFE550E150FAE100EE01F0250EEE6A38
:1070C000E806FDE1000EF86E00016CEF39F0010EEC
:1070D0000BEC38F03D0E2D6E7F0E2E6E86EC38F0E8
:1070E000C00E0BEC38F0990E2D6E7E0E2E6E86ECD7
:1070F00038F0900E0BEC38F0070E276ED00E266E8F
:107100003AEC39F0010E0BEC38F01200000E316E43
:1071100099EF38F031502D242F6E000E2E20306E56
:107120002FC0F6FF30C0F7FF0800F55020EC38F014
:10713000312A31502D242F6E000E2E20306E2FC09C
:10714000F6FF30C0F7FF0800F5500009D8A4ABEFF8
:1071500038F0ADEF38F08AEF38F01200010E0BEC8A
:1071600038F06A0E2D6E7F0E2E6E86EC38F0C00E53
:107170000BEC38F04C0E2D6E7F0E2E6E86EC38F038
:10718000D00E0BEC38F0CC0E2D6E7E0E2E6E86ECF3
:1071900038F0900E0BEC38F0070E276ED00E266EEE
:1071A0003AEC39F0950E2D6E7F0E2E6E86EC38F08F
:1071B000A2EC3CF0120084928494000E276E140E10
:1071C000266E3AEC39F08482380E0BEC38F0000E63
:1071D000276E050E266E3AEC39F0380E0BEC38F0BF
:1071E000000E276E010E266E3AEC39F0380E0BECCD
:1071F00038F0080E0BEC38F00F0E0BEC38F0010EE7
:107200000BEC38F0380E0BEC38F0800E0BEC38F04D
:10721000120024C026F025C027F01E0E296EEF0EA6
:10722000286EF8EC37F026C02CF027C02DF035EC96
:1072300038F0000E1B6E090E1B6421EF39F023EFAE
:1072400039F025EF39F039EF39F034EC3CF03E50AD
:10725000030B020DF3CF48F0320E4826010E1B241B
:10726000D96EDA6A000EDA2248C0DFFF1B2A1BEF54
:1072700039F01200000E296E000E286E60EF39F012
:10728000000E2A6E280E2A6448EF39F04AEF39F0D2
:107290004CEF39F05EEF39F0000E2B6E020E2B64CE
:1072A00054EF39F056EF39F058EF39F05BEF39F021
:1072B0002B2A4EEF39F02A2A42EF39F0284A292AA0
:1072C0002650285C27502958D8A069EF39F06BEF79
:1072D00039F040EF39F01200000E926E060EC16ECA
:1072E000F80E936E000E956E010E946E020E826E75
:1072F000000E966EDBEC38F009EC3EF0000E936E5B
:1073000096EF39F067EC38F0C6EC3BF062EC3BF0FE
:10731000809A010E0BEC38F0C80E2D6E7F0E2E6E8B
:1073200086EC38F04EEC3AF0F7EC39F01ABEA2EFEA
:1073300039F01A5009E10A0E195CD8A0A2EF39F011
:10734000A4EF39F082EF39F0AEEC38F000EF00F046
:1073500020EE36F0070EDE6AE806FDE226A0B3EF67
:1073600039F0B5EF39F0C5EF39F02E5036262F50F1
:107370003722305038223150392232503A2233509D
:107380003B2234503C2235503D22D8902E362F36A9
:10739000303631363236333634363536D8902D32B3
:1073A0002C322B322A3229322832273226322650EA
:1073B0002710281029102A102B102C102D10D8A4BB
:1073C000E4EF39F0E6EF39F0AEEF39F036C026F0F1
:1073D00037C027F038C028F039C029F03AC02AF069
:1073E0003BC02BF03CC02CF03DC02DF01200000E35
:1073F000816E000E836E010E0BEC38F0000E1B6EDA
:107400000F0E1B6406EF3AF008EF3AF00AEF3AF07D
:1074100016EF3AF0FF0E20EC38F0000E276E320E19
:10742000266E3AEC39F01B2A00EF3AF0C00E0BEC56
:1074300038F0790E2D6E7F0E2E6E86EC38F0816856
:107440008368000E826E000E276EC80E266E3AEC20
:1074500039F0020E826E000E816E000E836E000EF9
:10746000276E640E266E3AEC39F0000E826E81684B
:107470008368000E276EC80E266E3AEC39F0020EB5
:10748000826E000E816E000E836E030E276EE80E74
:10749000266E3AEC39F0194A1A2A1200000E186EBC
:1074A000000E176E96EF3AF00F0E956E000E2D6ED1
:1074B000000E2C6E24EC3DF0300F376E320E371874
:1074C000D8B465EF3AF067EF3AF082EF3AF0340E55
:1074D0003718D8B46EEF3AF070EF3AF082EF3AF026
:1074E000360E3718D8B477EF3AF079EF3AF082EFEA
:1074F0003AF0380E3718D8A480EF3AF082EF3AF01D
:1075000096EF3AF0000E936E000E956E0B0E172458
:10751000D96E000E1820DA6E37C0DFFF17C032F0C8
:1075200018C033F004EC3BF0174A182A1750195CC6
:107530001A50800A366E1850800A3658D8B0A3EF19
:107540003AF0A5EF3AF054EF3AF01200010E0BECCE
:1075500038F0870E2D6E7F0E2E6E86EC38F0C00E42
:107560000BEC38F0AA0E2D6E7E0E2E6E86EC38F0E7
:10757000D00E0BEC38F0CC0E2D6E7E0E2E6E86ECFF
:1075800038F0000E816E000E836E000E826E8168F0
:107590008368010E276E2C0E266E3AEC39F0020E2F
:1075A000826E000E816E000E836E010E276E2C0E11
:1075B000266E3AEC39F0000E826E81688368020E06
:1075C000276E580E266E3AEC39F0020E826E000ECF
:1075D000816E000E836E010E276E2C0E266E3AEC25
:1075E00039F0000E826E81688368070E276ED00E18
:1075F000266E3AEC39F0020E826E000E816E000E9D
:10760000836E01EF3BF012000B0E3224D96E000E98
:107610003320DA6E320EDE18D8A411EF3BF013EFF0
:107620003BF015EF3BF0B4EC37F00B0E3224D96E83
:10763000000E3320DA6E340EDE18D8A422EF3BF0B1
:1076400024EF3BF026EF3BF0C1EC37F00B0E322479
:10765000D96E000E3320DA6E360EDE18D8A433EF62
:107660003BF035EF3BF037EF3BF0CEEC37F00B0E55
:107670003224D96E000E3320DA6E380EDE18D8A40C
:1076800044EF3BF046EF3BF048EF3BF0DBEC37F0EC
:10769000000E816E010E3224D96E000E3320DA6E98
:1076A0000B0E3224E16E000E3320E26EDE50E6183F
:1076B000D8B45DEF3BF05FEF3BF061EF3BF0A6EC41
:1076C0003AF01200000E1B6EB3EF3BF0000E816E1D
:1076D000010E276EF40E266E3AEC39F0010E1B24D3
:1076E000D96EDA6A000EDA22320EDE18D8A47BEFE9
:1076F0003BF07DEF3BF07FEF3BF0B4EC37F0010E59
:107700001B24D96EDA6A000EDA22340EDE18D8A4F1
:107710008CEF3BF08EEF3BF090EF3BF0C1EC37F09D
:10772000010E1B24D96EDA6A000EDA22360EDE183C
:10773000D8A49DEF3BF09FEF3BF0A1EF3BF0CEECE8
:1077400037F0010E1B24D96EDA6A000EDA22380EE9
:10775000DE18D8A4AEEF3BF0B0EF3BF0B2EF3BF059
:10776000DBEC37F01B2A1B502C6E2D6A2C50195C59
:107770001A50800A2E6E2D50800A2E58D8B0C3EFB2
:107780003BF0C5EF3BF066EF3BF0120020EE49F016
:1077900010EE30F0130EDBCFE3FFE806FCE2010E43
:1077A0001924446E000E1A20456ED8904434D96EC8
:1077B0004534DA6E300ED926000EDA22DF50836EA1
:1077C000808A010E19242C6E000E1A202D6E2DBEFB
:1077D000F3EF3BF02D5009E10A0E2C5CD8A0F3EF3B
:1077E0003BF0F5EF3BF033EF3CF0000E1B6E130E59
:1077F0001B64FDEF3BF0FFEF3BF001EF3CF031EF9E
:107800003CF0EC0E2C6EFF0E2D6E44C02EF045C0E9
:107810002FF0D8902E362F362C502E262D502F227A
:10782000300E2E24D96E000E2F20DA6EDF50836EBC
:10783000808A809880968094000E276E140E266EA3
:107840003AEC39F032C083FF809A80888096809429
:10785000000E276E140E266E3AEC39F01B2AF7EF55
:107860003BF0809A809812001CC026F01DC027F0C3
:107870001EC028F01FC029F020C02AF021C02BF024
:1078800022C02CF023C02DF02D0E2E6E7F0E2F6EF9
:10789000950E306E4C0E316E2D0E326EF40E336E30
:1078A000510E346E580E356EA8EC39F026C040F0FB
:1078B00027C041F028C042F029C043F02AC044F05C
:1078C0002BC045F02CC046F02DC047F0010E4024DF
:1078D0001C6E000E41201D6E000E42201E6E000E1A
:1078E00043201F6E000E4420206E000E4520216EA6
:1078F000000E4620226E000E4720236E1CC040F072
:107900001DC041F01EC042F01FC043F020C044F033
:1079100021C045F022C046F023C047F0320E9AEF56
:107920003CF0D890473246324532443243324232FC
:1079300041324032E82E91EF3CF040C03EF042C070
:107940003FF0120020EE5DF010EE2EF0070EDBCFC0
:10795000E3FFE806FCE236683768364A372A020E4B
:1079600036183710D8A4B7EF3CF0B9EF3CF0BDEFB4
:107970003CF0000E376E000E366E010E36142C6E83
:10798000000E37142D6ED8902C362D362E0E2C244A
:10799000D96E000E2D20DA6EDF50836E808A8094BF
:1079A000000E276E640E266E3AEC39F0010E361486
:1079B0002C6E000E37142D6ED8902C362D362E0ED0
:1079C0002C24D96E000E2D20DA6EDF50836E809A43
:1079D0008088000E276E640E266E3AEC39F0010E98
:1079E00036142C6E000E37142D6ED8902C362D3692
:1079F0002E0E2C24D96E000E2D20DA6EDF50836EF1
:107A000080988086000E276E640E266E3AEC39F060
:107A1000010E36142C6E000E37142D6ED8902C36B5
:107A20002D362E0E2C24D96E000E2D20DA6EDF504E
:107A3000836E80968084000E276E640E266E3AEC6C
:107A400039F0ADEF3CF01200000E2F6E000E2E6EDE
:107A5000000E316E81CF30F0D5EF3DF0000E326E6A
:107A6000830E3224F66EF76A7E0EF7220800F55078
:107A7000FF0A811283B63FEF3DF041EF3DF059EF31
:107A80003DF0000E276E0F0E266E3AEC39F083B6ED
:107A90004CEF3DF04EEF3DF059EF3DF083A653EF34
:107AA0003DF055EF3DF04EEF3DF03228316ECBEF1B
:107AB0003DF083B45EEF3DF060EF3DF079EF3DF0D7
:107AC000000E276E0F0E266E3AEC39F083B46BEF82
:107AD0003DF06DEF3DF079EF3DF083A472EF3DF0A6
:107AE00074EF3DF06DEF3DF03250040F316ECBEF8F
:107AF0003DF083B27EEF3DF080EF3DF099EF3DF039
:107B0000000E276E0F0E266E3AEC39F083B28BEF23
:107B10003DF08DEF3DF099EF3DF083A292EF3DF007
:107B200094EF3DF08DEF3DF03250070F316ECBEF0B
:107B30003DF083B09EEF3DF0A0EF3DF0B9EF3DF09A
:107B4000000E276E0F0E266E3AEC39F083B0ABEFC5
:107B50003DF0ADEF3DF0B9EF3DF083A0B2EF3DF069
:107B6000B4EF3DF0ADEF3DF032500A0F316ECBEF88
:107B70003DF0830E3224F66EF76A7E0EF72208007F
:107B8000F5508116322A020E3264C9EF3DF0CBEF78
:107B90003DF030EF3DF0000E276E050E266E3AECFC
:107BA00039F0050E2E26000E2F222C502E5C2D5063
:107BB0002F58D8A0DEEF3DF0E0EF3DF0E9EF3DF0CB
:107BC0002C502D10D8A4E7EF3DF0E9EF3DF0F1EF98
:107BD0003DF03150D8B4EFEF3DF0F1EF3DF02EEF36
:107BE0003DF03150D8A4F7EF3DF0F9EF3DF0FAEF5A
:107BF0003DF031680B0E3118D8A401EF3EF003EFD1
:107C00003EF005EF3EF0000E316E30C081FF315086
:107C10001200010E0BEC38F02D0E2D6E7F0E2E6E25
:107C200086EC38F0000E1B6E0E0E1B641AEF3EF051
:107C30001CEF3EF01EEF3EF02AEF3EF0000E276EE6
:107C4000C80E266E3AEC39F0100E0BEC38F01B2AF9
:107C500014EF3EF0000E1B6E0F0E1B6432EF3EF071
:107C600034EF3EF036EF3EF042EF3EF0000E276E6E
:107C7000C80E266E3AEC39F0140E0BEC38F01B2AC5
:107C80002CEF3EF0010E0BEC38F0C00E0BEC38F090
:107C90005B0E2D6E7F0E2E6E86EC38F0900E0BEC88
:107CA00038F0FD0E2D6E7E0E2E6E86EC38F05BEFFA
:107CB0003EF0244A252A81A660EF3EF062EF3EF0B6
:107CC00069EF3EF081B867EF3EF069EF3EF059EFA3
:107CD0003EF081B86EEF3EF070EF3EF03EEF3FF0C9
:107CE000010E0BEC38F0A20E2D6E7F0E2E6E86EC80
:107CF00038F0000E1B6E080E1B6481EF3EF083EF20
:107D00003EF085EF3EF091EF3EF0000E276EC80E7C
:107D1000266E3AEC39F0100E0BEC38F01B2A7BEF94
:107D20003EF0000E1B6E090E1B6499EF3EF09BEFB8
:107D30003EF09DEF3EF0A9EF3EF0000E276EC80E1C
:107D4000266E3AEC39F0140E0BEC38F01B2A93EF48
:107D50003EF0010E0BEC38F0AF0E2D6E7F0E2E6E46
:107D600086EC38F0070E276ED00E266E3AEC39F00E
:107D7000010E0BEC38F0E00E2D6E7F0E2E6E86ECB1
:107D800038F0C00E0BEC38F0F50E2D6E7F0E2E6E17
:107D900086EC38F0900E0BEC38F0BB0E2D6E7E0E9C
:107DA0002E6E86EC38F0D00E0BEC38F0EB0E2D6E0C
:107DB0007F0E2E6E86EC38F08A0E0BEC38F0130E28
:107DC000276E880E266E3AEC39F0010E0BEC38F077
:107DD0000D0E2D6E7F0E2E6E86EC38F0C00E0BEC65
:107DE00038F0ED0E2D6E7E0E2E6E86EC38F0900E75
:107DF0000BEC38F0DD0E2D6E7E0E2E6E86EC38F01C
:107E0000D00E0BEC38F01D0E2D6E7F0E2E6E86EC14
:107E100038F0130E276E880E266E3AEC39F0010EFC
:107E20000BEC38F0D40E2D6E7F0E2E6E86EC38F0F3
:107E3000C00E0BEC38F0870E2D6E7E0E2E6E86EC8B
:107E400038F0900E0BEC38F0BC0E2D6E7F0E2E6EBF
:107E500086EC38F0D00E0BEC38F05B0E2D6E7F0EFA
:107E60002E6E86EC38F037EF3FF0244A252A81B693
:107E70003CEF3FF03EEF3FF035EF3FF009EC39F0DB
:107E80001200000102040053657175656E6369613B
:107E900020646F204C4544530020202020536571FE
:107EA00075656E6369612020200020204E616F207F
:107EB0006465736973746121202000283429472088
:107EC0002020202020202042283629004E6F766F67
:107ED000204A6F676F202D3E2052535400283629C8
:107EE000202D3E204C454420423320420028342996
:107EF000202D3E204C45442042322047005242343F
:107F0000202D3E205455544F5249414C00283229CF
:107F1000202D3E204C454420423120520028382953
:107F2000202D3E204C4544204234205900204C6FE7
:107F30006164696E672047656E6975730020202053
:107F400020204154454E43414F20200056616D6F23
:107F500073204465206E6F766F3F00524233202DB0
:107F60003E20494E494349415200566F63652043C4
:107F70006F6E736567756975002020204D75697493
:107F80006F2062656D21002020204E616F204465C6
:107F900075203D2800202020202020203D44202046
:107FA0002000202020205475746F7269616C0020BD
:107FB0002020436F6E74726F6C657300426F6D208A
:107FC0004A6F676F203D44002020202053554120F8
:107FD00056455A00526570726F64757A612061006F
:107FE000202020205445434C4153002020202020B5
:107FF000592838290020202020202832295200002A
:020000040020DA
:08000000FFFFFFFFFFFFFFFF00
:020000040030CA
:0E000000FF021F00FF8381FF0FC00FE00F40C3
:00000001FF
